:020000040800F2
:10000000701A002009700008216E0008236E000895
:10001000256E0008276E0008296E00080000000009
:100020000000000000000000000000002B6E00082F
:100030002D6E0008000000002F6E0008316E0008D1
:1000400033700008377000083B7000083F700008EC
:1000500043700008477000084B7000084F7000089C
:1000600053700008577000085B7000085F7000084C
:100070006370000867700008356E00083B6E00086A
:100080006B7000086F7000087370000877700008CC
:10009000416E00087B7000087F70000883700008C4
:1000A000877000088B7000088F700008937000083C
:1000B00097700008476E00089B7000089F7000084A
:1000C000A3700008A7700008AB700008AF700008AC
:1000D000B37000084D6E0008B7700008BB700008D0
:1000E000BF700008C3700008C770000800F5E0701A
:1000F0000268914203D343681A44914202D3806854
:100100000028F5D17047DFF80817086890B94FF458
:10011000805048604FF480324FF0FF30C860086173
:100120000420DFF8F0368A604861C3F8BC01DFF8CC
:10013000E80608600120704701F1080313F0070F7B
:100140000EBF0023C3F1080303F007031944D21ABA
:100150008161C26042F001034B60091D4FF0280C21
:1001600041F802C0DFF8A8261369C36170472DE982
:10017000FC4B074601F1080010F0070F0FBF89463E
:10018000C0F1080000F0070001EB000902F10801CE
:1001900011F0070F06D002F10800C0F1080000F0CE
:1001A000070002441546A5EB090009EB0306A0EB86
:1001B000030B43F00303C9F80430AE4228BF00F03C
:1001C00055FF2879C10758BF00F050FFBBF1100F51
:1001D00038BF00F04BFFB869854208D1F9688B44FD
:1001E000C7F80CB0BE614BF00100706051E1786956
:1001F00085420AD1B9688B44C7F808B07E614BF0DC
:100200000100706046F80BB043E1686800F003013C
:10021000012940F0AC80C008C0000190C0081F2830
:1002200039D8AC68D5F80C800090454508BF00F07F
:100230001DFFA54208BF00F019FF68680099C008BB
:10024000C000B0EBC10F18BF00F010FF009907F11C
:10025000280000EBC100844206D039698C42C0F00E
:100260008180E268AA427DD1A04506D10098396814
:10027000012383409943396076E0804506D039698F
:1002800088456FD3D8F80800A8426BD1C4F80C8019
:10029000C8F8084068E0EC68D5F81880AC420CD08B
:1002A000A8683969884223D3C268AA4204BFA168FA
:1002B000A9421DD1C460A0601CE005F114010C68C6
:1002C00034B905F110010C68A4B101E011460C68C5
:1002D00004F114021068002802BF04F11002106833
:1002E0000028F3D13869814202D300220A6001E07C
:1002F00000F0BCFEB8F1000F36D0E96907F5987040
:1003000000EB81000268954208D10460A4B9E86955
:100310007968012282409143796025E038698045FF
:1003200008D3D8F81010A94214BFC8F81440C8F870
:10033000104001E000F09AFEB4B139698C4211D34B
:10034000C4F81880286928B1884226BF20618461DA
:1003500000F08CFE686938B13969884202D3606167
:10036000846101E000F082FE01996D188B44696898
:100370004908490069604BF0010070604FEADB04F6
:1003800046F80BB01F2C23D807F1280000EBC40857
:100390004546BBF1100F38BF00F068FE386820FA00
:1003A00004F1CA0705D4012101FA04F404433C60B6
:1003B00007E0D8F80800396988422CBF054600F0EC
:1003C00055FEC8F80860EE60B560C6F80C8060E0C5
:1003D0005FEA1B2008BF002123D0B0F5803F28BF73
:1003E0001F211ED2A0F58072120C02F0080290406C
:1003F000A0F58051090C01F004018840A0F580436C
:100400001B0CC2F10E0203F00203521AD21A9840DA
:1004100002EBD032D01D2BFA00F101F0010101EB0B
:100420004201F161002307F59872736102EB8100CC
:1004300033617A6822FA01F3DC0707D4012303FA57
:1004400001F1114379600660B0611DE002681F2967
:100450001DBF4908C1F119010BFA01F1594600E02D
:1004600002465068C008C000584516D002F110037B
:10047000C80F03EB8003490018680028F0D13869E1
:10048000834204D31E60B261F660B66001E000F002
:10049000EDFD09F10800BDE8F68B396990688A42E4
:1004A00028BF8842F3D3C6609660B060F260002037
:1004B000B061EEE72DE9FE4F04468B46A5692E4656
:1004C000904699463146FFF711FE0268416802EBFB
:1004D000010AAAF1270111F007000EBF0021C1F1A6
:1004E000080101F007010AEB0100A0F12F0706F156
:1004F00010018F4238BF374607F1180200210192E0
:100500000091A8F1280259462046FFF715FE07F191
:10051000080010F0070F18BF00F0A8FD1B2078603E
:1005200007F1080104F5E07090E80C5081E80C50E8
:10053000C0F800B0C0F80480C0F80C9081600722B9
:100540000198009900E0001D491C00F10803534583
:100550004260F8D30129D8BF00F088FDB74200F00F
:100560009580BF1B301D321DC15949084900D1512A
:1005700047F0010070604FEAD70BF751BBF11F0F36
:1005800021D804EBCB0000F12805A846102F38BF76
:1005900000F06CFD206820FA0BF1CA0705D4012198
:1005A00001FA0BF10843206006E0A868216988423F
:1005B0002CBF804600F05AFDAE60C8F80C60C6F84B
:1005C0000880F5606FE0380A08BF002123D0B0F53D
:1005D000803F28BF1F211ED2A0F58072120C02F0AE
:1005E00008029040A0F58051090C01F004018840F8
:1005F000A0F580431B0CC2F10E0203F00203521A55
:10060000D21A984002EBD032D01D27FA00F101F047
:10061000010101EB420104EB8102002302F5987015
:10062000F16173613361626822FA01F3DB0707D479
:10063000012303FA01F1114361600660B0611DE01E
:1006400002681F291DBF4908C1F1190107FA01F10C
:10065000394600E002465068C008C000B84216D0D3
:1006600002F11003C80F03EB80034900186800284B
:10067000F0D12069834204D31E60B261F660B56098
:1006800011E003B0BDE8F04F00F0F0BC0BE02169D1
:1006900090688A4228BF8842F3D3C6609560B060F4
:1006A000F2600020B06103B0BDE8F08F2DE9F041A9
:1006B000574F05463868884608B9FFF724FDB968E2
:1006C00001EB08002F30491E20EA010188457DD248
:1006D00005F5D876B06828B1326889188A4275D293
:1006E000884273D300F002FD01001CBF0C6811F1B9
:1006F000010F6BD03068201805F5D8723060536850
:10070000984238BF18467060A86960BB286908B174
:10071000814200D22961316174610020F0614FF0A3
:10072000FF303A686A62286205F128020020D26030
:10073000926002F1080757611761801C103220286F
:10074000F5D33448854208BFA4F1280228D055F8D3
:10075000040CC00805EBC002A2F108000A19121A25
:10076000283A01461CE005F5E070024600E0926878
:100770007AB3136857681F44B942F8D1137B1F0737
:1007800027D4AB691768BB4223D3D2F804C06744AF
:10079000BB421ED2A444C2F804C0E868A96922186A
:1007A0002846FFF7C9FC1FE08068C0B10368934288
:1007B000FAD1027B130712D4026801604368E4187F
:1007C000446043462846BDE8F041D0E40020BDE83F
:1007D000F0812A69914238BF29610A19E5E70023AF
:1007E00022462846FFF766FEE8688045EED2A0EB79
:1007F0000800A969E86001EB0802AA6140F0010065
:10080000506048F00300486001F10800BDE8F08145
:1008100030080020240100206859883C2DE9F84F59
:1008200000258946090AC9F1000B08BF002323D01F
:10083000B1F5803F28BF1F231ED2A1F58072120C94
:1008400002F008029140A1F580531B0C03F0040351
:100850009940A1F58044240CC2F10E0204F0020478
:10086000D21A121BA14002EBD132D11D29FA01F399
:1008700003F0010303EB4203074607F5987858F8A5
:10088000230030B31F2B0FBF4C465C08C4F1190482
:1008900009FA04F4AC46594600E064004268D20804
:1008A000D200A2EB09028A4203D21100054600F0F1
:1008B0006981426910304FEAD47B50F82B00002A3E
:1008C0001CBF824294460028E7D18B466046B0BBED
:1008D000BDBB012202FA03F35B005842796803436F
:1008E0000B4000F04E81584203405B1E180B00F095
:1008F0001000C340590901F00801CB409A0802F0EA
:100900000402D3405C0804F002040818E340101805
:10091000C3F3400620183044F3401B1858F8230056
:100920000DE008464168C908C900A1EB0901594515
:100930003CBF8B46054601690029F2D14069002879
:10094000F0D1002D00F01D81B868A0EB09008345AF
:1009500080F0178139698D42C0F011816868C00844
:10096000C00009EB0B01884218BF00F07FFB05EBCC
:100970000906B54280F00381EC68D5F818A0AC42B6
:100980000CD0A8683969884223D3C268AA4204BF40
:10099000A168A9421DD1C460A0601CE005F114014A
:1009A0000C6834B905F110010C68A4B101E01146DE
:1009B0000C6804F114021068002802BF04F1100250
:1009C00010680028F3D13869814202D300220A60FE
:1009D00001E000F04BFBBAF1000F36D0E86908EBFC
:1009E000800001688D4209D10460200014D1E869BB
:1009F0007968012282409143796026E03869824516
:100A000008D3DAF81010A94214BFCAF81440CAF883
:100A1000104001E000F02AFBBCB13869844212D3D7
:100A2000C4F818A0286930B13969884226BF20610E
:100A3000846100F01BFB686938B13969884202D3D0
:100A40006061846101E000F011FBBBF1100F0CD27A
:100A5000D94449F00300291D6860281D51F8092078
:100A600042F0010240F8092088E049F00300686084
:100A70004BF0010070604FEADB0046F80BB01F2816
:100A80001DD807EBC00101F12804396821FA00F2F2
:100A9000D307A34605D4012202FA00F008433860C8
:100AA00006E0A068396988422CBF834600F0DEFA70
:100AB000A660CBF80C60C6F808B0F4605EE05FEAB0
:100AC0001B2008BF002123D0B0F5803F28BF1F2185
:100AD0001ED2A0F58072120C02F008029040A0F520
:100AE0008051090C01F004018840A0F580431B0CE3
:100AF000C2F10E0203F00203521AD21A984002EB1E
:100B0000D032D01D2BFA00F101F0010101EB4201BE
:100B1000F16100227261326108EB81007A6822FA89
:100B200001F4E30707D4012404FA01F111437960C9
:100B30000660B0611DE002681F291DBF4908C1F1B0
:100B400019010BFA01F1594600E002465068C0084D
:100B5000C000584518D002F11003C80F03EB800302
:100B6000490018680028F0D13869834204D31E6018
:100B7000B261F660B66001E000F078FA14E100F0CE
:100B800075FA0EE18B46A2E6396990688A4228BF61
:100B90008842F1D3C6609660B060F2600020B06118
:100BA000ECE72DE9F84F0646884671684842014057
:100BB000491E080B00F01000C1404A0902F008026B
:100BC000D1408B0803F00403D9404D0805F002051D
:100BD0001018E9401818C1F34004281806F5987A4F
:100BE0002044E14009185AF821104868C008C000A4
:100BF0000D46A0EB080909E001464868C008C0009E
:100C0000A0EB080048453CBF81460D460869002816
:100C1000F2D149690029F0D130698542C0F0BF8026
:100C20006968C90808EB090BC900594518BF00F0ED
:100C30001DFA05EB08008542009080F0B080EF6857
:100C4000AC69AF420CD0A8683169884223D3C2682E
:100C5000AA4204BFB968A9421DD1C760B8601CE0B0
:100C600005F114010F6837B905F110010F68A7B13C
:100C700001E011460F6807F114021068002802BF56
:100C800007F1100210680028F3D13069814202D3C5
:100C900000220A6001E000F0E9F9002C31D0E86997
:100CA0000AEB800001688D4208D107608FB9E869BE
:100CB0007168012282409143716022E03069844270
:100CC00005D32169A94214BF6761276101E000F0E3
:100CD000CDF9B7B13069874211D3BC61286930B111
:100CE0003169884226BF3861876100F0BFF96869C1
:100CF00038B13169884202D37861876101E000F040
:100D0000B5F9B9F1100F0BD24BF00300291D686043
:100D1000281D51F80B2042F0010240F80B203DE065
:100D200048F003012A1D696049F0010042F80800FB
:100D3000009941F80990D6F808804FEAD80BBBF12A
:100D4000200F28BF00F092F9B8F1000F22D006EB77
:100D5000CB00776900F12804A246B8F1100F38BF24
:100D600000F084F9306820FA0BF1CA0705D401219C
:100D700001FA0BF10843306006E0A068316988424F
:100D80002CBF824600F072F9A760CAF80C70C7F851
:100D900008A0FC60C6F808900098706104E000F0BC
:100DA00065F90020BDE8F28F05F10800BDE8F28F7B
:100DB0002DE9FE4F0546AFF30080F52DDFF8A86260
:100DC00080F004810B2D31BF10250B35ED08ED00AF
:100DD0003068EC08E04010F0030F46D0C04300F04C
:100DE0000100041906F1280000EBC408E700D8F858
:100DF00008506868C008C000B84218BF00F036F953
:100E0000D5F80890454508BF00F030F94D4508BFBA
:100E100000F02CF96868C008C000B84218BF00F0A4
:100E200025F9C84507D13068012101FA04F420EA08
:100E3000040434600DE03069814508D3D9F80C1002
:100E4000A94204D1C8F80890C9F80C8001E000F06C
:100E50000DF947F00300291D6860281DCA5942F0AA
:100E60000102C25105F10804F8E0B168A94280F01E
:100E7000BE80002800F0A1804FF0010808FA04F1BC
:100E8000490000FA04F4484201430C406042044027
:100E9000641E200B00F01000C440610901F008013D
:100EA000CC40A20802F00402D440630803F002031D
:100EB0000818DC401018C4F3400718183818FC4014
:100EC000241806F1280000EBC40AE700DAF80890BD
:100ED000D9F80400C008C000B84218BF00F0C6F836
:100EE000D9F808B0D14508BF00F0C0F8D94508BF0F
:100EF00000F0BCF8D9F80400C008C000B84218BF20
:100F000000F0B4F8DA4506D1306808FA04F420EAB3
:100F1000040434600DE031698B4508D3DBF80C0024
:100F2000484504D1CAF808B0CBF80CA001E000F0A5
:100F30009DF87F1B45F0030009F10402C9F8040085
:100F400047F00101515109EB05020192D751B468F4
:100F50004FEAD40ABAF1200F28BF00F087F834B363
:100F6000CDF800A006F12800756900EBCA0AD34647
:100F7000102C38BF00F07AF83168009821FA00F29E
:100F8000D30704D408FA00F00843306007E0DAF829
:100F90000800316988422CBF834600F067F8CAF820
:100FA0000850CBF80C50C5F808B0C5F80CA0B760D5
:100FB00009F108040198706150E07068C0B32946D7
:100FC0003046FFF7EEFD040011D047E015F1400F69
:100FD00028BF4FF0FF350AD20B35ED087068ED00E1
:100FE00028B129463046FFF719FC040036D1B06815
:100FF000A8421DD3411B726910290AD35019706190
:10100000B16041F001034360415045F00305556074
:101010000BE00021B1607161131D40F003015160CC
:10102000111D1C5844F001040C5002F1080415E095
:10103000F06885420DD2401BB169F0604A19B26177
:1010400040F00100506045F003054D6001F10804D7
:1010500004E029463046FFF729FB0446AFF3008041
:101060002046FFF720BB000024010020012000F0F3
:1010700053B8F0B40246106895681318506803EB33
:101080005004C0071DD54D441BE013F8017B05F843
:10109000017B491EF9D1A0B1B60813F8011B06F077
:1010A0000306032E08BF13F8016B01EB062149422A
:1010B000801C294405D011F8016B05F8016B401E16
:1010C000F9D1A3420ED013F8016B16F0030104BF4F
:1010D00013F8011BC91C30090F28DAD113F8010BD2
:1010E0000F30D6E7F0BC02F10C00704707490868E2
:1010F00008B1002070470648C008C00008600549D4
:10110000C908C900091A0160704700BF6C080020B7
:10111000771A0020702A002080B5AFF30080024AC1
:1011200011001820ABBEFBE7260002002DE9F04FAE
:101130000FF2A41CA1B0DCE90089CDE900892A9D49
:10114000DFF8DC9B049100248DF843500D944FF0A0
:10115000FF38824616461F460FE0B3462C461BF862
:10116000011B0498D0470028049000F0A2800D983D
:10117000401C641E0D90F2D176193078252808D1D4
:10118000002100220791089209910A920B910C927A
:101190000DE06A464146304600F0D8FF050001D117
:1011A0000D98A1E0D9D50125E6E741F0010116F837
:1011B000010F2028F9D023280CD02B2804D02D286B
:1011C00005D0302809D076E041F00201EFE741F088
:1011D0000401ECE741F00801E9E741F01001E6E71E
:1011E0000F9209E00F98484505DA00EB800402EB06
:1011F0004402303A0F92761C3278A2F130000A286D
:10120000F0D330782E2818BFCDF8388022D116F8C8
:10121000010F2A2807D138683860761C50F8042B53
:1012200038600E9216E02D280CBF761C002000229C
:101230000E920AE040B90E9A4A4505DA02EB8204A2
:1012400003EB4403303B0E93761C3378A3F130025A
:101250000A2AEFD3ADF8401021A0317800F080FFCA
:1012600008B116F8010B8DF842009DF8420068287D
:1012700004D1307868280AD1622105E06C2804BFC7
:1012800030786C2803D171218DF84210761C12A899
:1012900006903A4616F8013B02A9504600F064F861
:1012A00038B912AA02A9504600F0C8F900287FF503
:1012B00064AF404618E02A2892D13A683A6052F862
:1012C000040B3A6000280F9003D540420F9041F084
:1012D0000401761C95E700000000000000000000FB
:1012E000686A6C747A4C000021B0BDE8F08F622807
:1012F00020D0682811D06A2803D06C2827D0712804
:1013000025D10868C01D20F007000860D0E900233F
:1013100008300860194610467047002A0A680A60BB
:10132000106803D0121D0A6000B217E0121D0A6097
:1013300080B217E0002A0A680A60106803D0121D04
:101340000A6040B20AE0121D0A60C0B20AE0002A38
:101350000A680A60106803D0121D0A60C11770473E
:10136000121D0A60002170477CB50D4611461C46CF
:101370002E69B4F1250200F04F811C3A00F0848000
:10138000121F022A40F280800E3A00F00981521F9B
:1013900059D0093A78D0921E16D0521E35D0521E1E
:1013A000022A71D9121F30D0521F00F09880521EAD
:1013B00049D0521E00F0E280D21E00F0FF80921E43
:1013C00041D0D21E3FD02DE195F83A406C2C09D087
:1013D0006869421C6A610A680A6052F8043B0A6044
:1013E000335429E10A680A6052F8043B0A6000930A
:1013F000002201924FF0FF332B636A46294600F02A
:1014000098F9002840F1188103E195F83A0001228B
:10141000FFF76DFFC5E90001002904D56869411C8B
:1014200069612D220DE0288F810704D56869411C70
:1014300069612B2205E0C00721D56869411C6961FB
:10144000202232541BE095F83A000022FFF74FFFAC
:10145000C5E9000195F83800010710D5D5E900234A
:10146000002B08BF002A0AD044F02000782806D1BB
:10147000686930213154401C421C6A613454214651
:1014800068693044E86087E00868C01D20F0070004
:101490000860D0E9002308300860C5E90023D5E9D9
:1014A0000001C80F04D06869411C69612D220DE05C
:1014B000288F810704D56869411C69612B2205E0EA
:1014C000C00704D56869411C6961202232546869EB
:1014D0003044E8602146284600F036FAACE005F1D9
:1014E0003A02507820B14FF0FF340FF6043074E028
:1014F0001078622808D0682824D06A2812D06C2876
:101500002ED071280ED02BE00A680A6052F8040B26
:101510000A6020B94FF0FF340FF6EC205DE0E96A75
:10152000017089E00A680A6052F8040B0A6020B969
:101530004FF0FF340FF6D0204FE0EA6AD317C0E92E
:10154000002379E00A680A6052F8040B0A6020B9A7
:101550004FF0FF340FF6B0203FE0E96A01806BE006
:101560000A680A6052F8040B0A6020B94FF0FF3491
:101570000FF6942031E0E96A01605DE00A680A60D4
:1015800052F8040B0A60002120F0000221F0FF3322
:10159000C5E90023EE607821284600F02DF94BE0E4
:1015A0006C2285F83A200B680B6053F8042B0B6013
:1015B00052BB4FF0FF340FF684200EE095F83A202E
:1015C0006C2AF0D00868086050F8044B0860EC60A2
:1015D0003CB94FF0FF340FF6482000F0DBFD201A35
:1015E00076BD2E6B002E04D5204600F0F3FD044698
:1015F00008E032460021204600F0F6FD002814BF26
:10160000041B3446AC6117E0294600F092F800282C
:1016100012D54FF0FF3076BD6869411C6961252203
:10162000325409E06969481C68612522725421001E
:1016300002D0431C6B613454002076BD2DE9F0418B
:101640000E4605469046726B7069316AB46A121A8A
:10165000B069521A716A121AF069521A121A96F87F
:101660003800141B41070DD4002C0BDD2746B06851
:101670002021A8470028B06057D0F06A401C7F1E88
:10168000F062F4D1736942463146284600F098FC76
:1016900000284AD1376A002F0ADDB0683021A847F8
:1016A0000028B06041D0F06A401C7F1EF062F4D187
:1016B000B369F2683146284600F082FCA8BB776A1D
:1016C000002F09DDB0683021A847B06068B3F06A28
:1016D000401C7F1EF062F5D1F068B169F3694218D1
:1016E0003146284600F06CFCF8B9B76A002F09DDD6
:1016F000B0683021A847B060B8B1F06A401C7F1EC6
:10170000F062F5D196F8380041070BD5002C09DDC1
:10171000B0682021A847B06038B1F06A401C641E50
:10172000F062F5D10020BDE8F0814FF0FF30BDE858
:10173000F0812DE9F8470D46A3B02F6B002F064628
:10174000904648BF6FF000470FF60C1400F078FD8C
:10175000D4E90023696B4018CDE90123812828BF13
:101760004FF0FF3042D20024002F33DDD8F80010B4
:1017700001AA684600F0ECFC8146B9F1000F38D4AC
:10178000D8F8000010B9B9F1010932D44F4521DB76
:101790006869484481280AD30021696303AA29465D
:1017A0003046FFF74BFF040014D40020686103AB00
:1017B000D5F814A04A46694603EB0A0000F052FD32
:1017C000CA44C5F814A058F8040B002818BFA7EBAA
:1017D0000907C9D14CB903AA29463046FFF72EFFA5
:1017E000044614B9002068616863204624B0BDE84F
:1017F000F0874FF0FF34F8E72DE9FC4307466F29E7
:101800003E6908BF082405D041F02000782814BFA5
:101810000A2410243C25D7E90023642918BF69292C
:101820009046994605D1002B03D5D8F1000869EB05
:101830004909B9F1000F08BFB8F1000F1FD1386B8B
:10184000E8B9082C4CD197F83800010748D530206A
:101850003B2586F83B0043E000280ED597F838007A
:1018600000F01400102808D17B6B7969386A5B1A84
:101870001B1A9A1A002AC8BF3A62BDE8F3838DF892
:101880000010404649462246E31700F0F7FC30328C
:10189000D0B26D1E3A28019504DB9DF80000A0F13E
:1018A00051018A187255404649462246E31700F016
:1018B000E5FC80465FEA010908BFB8F1000F03D0DC
:1018C000F86871198842DCD3082C09D197F83800E0
:1018D000010705D5705D302802D06D1E302070558F
:1018E000C5F13C02BA617119F960386B8242B3DA12
:1018F000821A3A624FF6EF70398F01403987BDE89E
:10190000F3832DE9D04306460F4614464FF00008F6
:10191000DFF8109412E0E00707D542464B46304608
:10192000394600F0C3FD06460F464046494642464A
:101930004B4600F0BBFD641080468946002CEAD17E
:1019400030463946BDE8D0832DE9F84F05468A4632
:101950004AF020048EB0D5E90089612C02AE09D08E
:10196000286B002848BF062003D408BF672C01D18C
:1019700001202863D5E900014A005215521C0DD1FF
:101980000B030BD0AAF1610103201A29A86102D22E
:101990000FF2CC6110E00FF2CC610DE04A0052155D
:1019A000521C0ED10B030CD1AAF1610103201A299C
:1019B000A86116D30FF2B461E868032200F052FC6C
:1019C000C0E1CDE90C01DDE90C2323F00043B3F5C0
:1019D000801F0DD20027002B08BF002A019703D1DA
:1019E00011E00FF28461E7E701AA00F031FE0AE09E
:1019F000CD48CE4900EB1350DDE90C2301900B409C
:101A0000CB4910461943C5E90001612C0DD1E868A6
:101A100030210170821CBAF1610FEA600CBF78219D
:101A2000582141706869801C6861D5E90001CDE9E1
:101A30000C01DDE90C2333F0004104BF0028002332
:101A400000F04881612C40F0A080286B49460028B6
:101A50004CBF4FF0210B00F1010B40460022002348
:101A6000DDE90C8900F02CFE01990BF1010738BF6C
:101A700089F00049091F002F01918DF808200DF110
:101A8000090040F33581A949009106464046494680
:101A90000022002300F02CFE80F029814800400D38
:101AA00000F11C0211D0002A0FDD40F2FF739A42B0
:101AB00005DBA04909F000400143002011E0009B34
:101AC000194041EA025140460BE028F0000039F08D
:101AD000004108BF00280FBF49461C22494600F0BC
:101AE0001FFE8046894600F0B9FEFF1F002F044606
:101AF00009DD00F0D1FE02460B464046494600F0A3
:101B0000DDFE80468946F01D072104E004F00F0247
:101B100000F8012D2411002C01DD491EF6D5491EC7
:101B20005CBF002200F8012DF9D5DCE00020194649
:101B300002AA0A4400E05B1E12F80149491E8442D1
:101B4000F9D00F2804D10DF10900425C521C425417
:101B5000002904D50198001D02AE5B1C0190581E9F
:101B60000CD43118AAF13A040A783032D7B23A2F9D
:101B7000A8BFA218401E01F80129F5D5286B00283E
:101B800040F1A780591E2963A3E001996A4A47F2F0
:101B90009750414391FBF2F2019229F00046D2F1B5
:101BA000070204DD40463146FFF7ABFE0AE0524231
:101BB00000206249FFF7A5FE02460B46404631462B
:101BC00000F0EEFE8046662C286B06BF019F0A37A8
:101BD00006273F18142FC8BF142730208DF808009F
:101BE00089460DF1090000E03046002F34DD06463D
:101BF0004046494600F0F8FF01460A4606F1080350
:101C000004200A26B2FBF6F606EB860EA2EB4E0285
:101C1000303203F8012C0A22B6FBF2F202EB820EFC
:101C2000A6EB4E063036401E03F8026DE9D1083FA0
:101C3000002F03F10806D7DD084600F0E9FF024651
:101C40000B464046494600F039FE00223C4B00F06E
:101C50002DFC80468946CBE70DF10901401A0DF1B4
:101C6000090604E00199491E401E0191761C317855
:101C70003029F7D0662C02D10199491C03E0652C6C
:101C80000CBF012100212B6BCB189842B8BF431E1B
:101C9000002B1ED4834204DAF05C3528A8BF39201B
:101CA00000DA30201946721E02EB010800E05B1ECC
:101CB00018F80199491E8145F9D0392802D1705C84
:101CC000401C7054002904D50198401C16465B1C2A
:101CD0000190019800B200901BB23246514628464E
:101CE00000F034F82EE0C61D002F3FF7CFAE30468F
:101CF0000DF10901401A03465845C8BF5B46002B49
:101D00000DF109063FF53AAF8342BFF60FAF0DF173
:101D10000900C15C07297FF709AF0F2007E7000022
:101D2000CBCCCC0C0000244002FCFFFFFFFF0F8057
:101D30000000E03F0000F07FA08601000000F03FBF
:101D400084D797410FB0BDE8F08F00002DE9F84728
:101D500083B006468A461746984600F0FBF9B8F16C
:101D6000000F406A356B90F8009002DC4FF00108DC
:101D7000BFA74AF02000BDF93040662808BF641CA8
:101D800015D0672840F0848014F1040FC0F28680DB
:101D9000AC4280F2838096F83800641C010702D4BC
:101DA000A845B8BF454620B22D1A48BF00250FFAF6
:101DB00084FAF068B169BAF1000F25DC4A1C3023BF
:101DC0004354002D03DC96F83800010703D5F06872
:101DD00000F80290521C15EB0A0FB8BF6C4220B2FB
:101DE000441941424445B8BFA046B26171620FFA3E
:101DF00088F5F561F068B3692A463946184400F061
:101E000031FA641BB462C4E022B29045084417DA88
:101E10004246394600F026FAB0694044B061AAEB68
:101E20000801002D716203DC96F838100A0705D509
:101E3000F16801F80090F069401CF061B562A8E01B
:101E4000394600F00FFAB069002D5044A8EB0408A1
:101E500003DC96F838100A0703D5F16801F8009002
:101E6000401CB0610FFA88F08542F368B069B8BFD2
:101E7000A8460FFA88F207EB0A01184400F0F2F9BD
:101E8000B1690FFA88F00144B161281A706280E0EC
:101E9000BAF1610F14D14FF0700A16E0A84504DAC8
:101EA00096F838100A0758BF45466D1E48BF0025F2
:101EB000BAF1670F14BF4FF0450A4FF0650A04E00E
:101EC000BAF1410F08BF4FF0500AB169F368481CDE
:101ED000B061002D17F8012B5A5403DC96F8381026
:101EE0000A071BD5F168431CB36101F80090002D6F
:101EF00014DDA8F101080FFA88F039468542F76829
:101F0000B8BFA8460FFA88F2F81800F0ABF9B0692C
:101F10000FFA88F108446D1AB0617562F068B16912
:101F20000844002C80F800A003D42B224270811CAE
:101F300003E02D2141706442811C00206A460AE0C2
:101F400023460A2493FBF4F404EB8405A3EB450336
:101F500002F8013B401C24B2002CF1DC012806DC15
:101F60004AF02002652A04BF302201F8012B48B94B
:101F7000302001F8010B07E0401E1DF8003030331F
:101F800001F8013B0028F7DCF268B0691044091A37
:101F9000F16196F8380000F0140010280DD1726934
:101FA000B169706A8A18F1698218B06A8A18821851
:101FB000706B8242BCBF821A326204B0BDE8F08707
:101FC000F8B505460E4617461C46002074B117F8B2
:101FD000011BB068A847B06030B1F06A401CF062E5
:101FE0000020641EF3D1F2BD4FF0FF30F2BD0000BF
:101FF0007072696E74665F733A20256E206469732F
:10200000616C6C6F776564007072696E74663A20FB
:1020100062616420256E20617267756D656E740063
:102020007072696E74665F733A2062616420257312
:1020300020617267756D656E740000007072696E64
:1020400074665F733A2062616420256C732061724C
:1020500067756D656E7400000000000000000000F0
:102060006E616E004E414E00696E6600494E46003C
:10207000300030B4002513E050F8042BD30744BFE0
:10208000A9F101039A18091F042942F8045BFAD246
:1020900013468C0744BF15809B1CC90748BF1D70A1
:1020A00050F8041B0029E7D130BC7047613807E0C5
:1020B00005E0A0F161011A2901D2012070474138E1
:1020C0001A288041C00F7047A0F10901052901D3EA
:1020D000202801D10120704700207047A0F1410164
:1020E0001A2938BF203070471B48704770B45368B6
:1020F000D418042B09DA41B1057804F8015B10F813
:10210000016B16B15B1C491EF3E7536070BC70474E
:1021100038B514461D4661B1FFF7E8FF61686A6B88
:10212000204690476FF00102811A02D0491E01D06B
:1021300001E003E005E00021616032BD6FF00100C5
:1021400032BD4FF0FF3032BDDA6B1047024BDFE794
:10215000014BF9E701487047DC000020A400002093
:10216000C9B202788A421AB11CBF10F8012FF9E7F0
:1021700018BF00207047B1F5807F02D34FF0FF30C9
:1021800070470170012070470078401E8041C043B5
:10219000C00F704780B500B906A005490B681BB198
:1021A00022220021984701E0FEF760FF222002BDB5
:1021B00068080020636F6E73747261696E742068C2
:1021C000616E646C65723A20626164206D65737340
:1021D0006167650000F1010310F8011B11B110F8EF
:1021E000011BFBE7C01A7047C9B2830706D0521E15
:1021F00022D310F8013B9942F7D11FE0083A13D3DC
:1022000002F1040241EA012141EA014150F8043B94
:10221000121F21BF4B40A3F1013C2CEA030C1CF020
:10222000803FF3D0C9B2001F083210F8013B521EA4
:1022300028BF91EA030FF8D818BF0120401E70474D
:1022400080B5FFF751FF006C02BD8268521C8260AE
:10225000426832B10268531C036011704168491E24
:10226000416070474AB1000011F8013B521E00F86E
:10227000013B1CBF11F8013BF8E77047BBBBE1B164
:10228000B2F5803F80F07E80022A1ED98C46B1FBD9
:10229000F2F102FB11C31B0443EA1043B3FBF2FC4F
:1022A00002FB1C3380B240EA0343B3FBF2F002FBB3
:1022B000103240EA0C4000237047022A05D98446B8
:1022C000B0FBF2F002FB10C270474AB105D100F03A
:1022D000010249085FEA300070470022002370477E
:1022E00000F0A4BC0B0002000021002070479042C7
:1022F00071EB030CF6D3B3F5803F2FD2F0B5B3FAF0
:1023000083F7B1FA81F4A7F10F0E3D1B5340CEF1D4
:10231000200602FA0EF2F3415340B5F10F0746D8FA
:102320000F3C2C444140C4F12006A040F141414003
:10233000B1FBF3F603FB1611A2FB0645001BA941F6
:1023400002D2761E8018594180EA010221FA0EF36A
:1023500062FA0EF200215A403046F0BD30B4B1FBB3
:10236000F3FC03FB1C11A2FB0C45001BA94103D28B
:10237000ACF1010C8018594130BC02460B46604656
:1023800000217047B2F1807F65D3F0B5B2FA82F7D1
:10239000B1FA81F4C7F10F063D1B22FA06F307F1EB
:1023A000110EF24120355A40B5F10F07B8D941401E
:1023B000C4F12006A040F1414140B1FBF3FC03FB16
:1023C0001C11A2FB0C45001BA94103D2BCF1010C5E
:1023D000801859410F2F12D30F3FC90341EA5041D2
:1023E000B1FBF3F603FB1611A2FB0645D4EBC0309C
:1023F000A94102D2761E8018594146EACC3C07B367
:102400004140C7F12006B840F1414140B1FBF3F62D
:1024100003FB1611A2FB0645001BA94102D2761E42
:102420008018594180EA010221FA0EF3C7F1200415
:1024300062FA0EF20CFA07F05A402CFA04F130431B
:10244000F0BD80EA010221FA0EF3002162FA0EF2D9
:1024500060465A40F0BD8C46B1FBF2F102FB11C35D
:102460001B0243EA1063B3FBF2FC02FB1C331B02AA
:102470004CEA002043EA1063B3FBF2FC02FB1C337E
:102480001B024CEA002043EA1063B3FBF2FC02FBA0
:102490001C331B024CEA002043EA1063B3FBF2FC3E
:1024A00002FB1C324CEA002000237047B0B581EAE1
:1024B000030C0CF0004C40F2FF7515EA11541DBFDF
:1024C00015EA1357AC42AF4239E0E41923EA455309
:1024D00043F48013C90241F0004141EA505EC70253
:1024E0001100A7FB020200284FF00000EEFB0120C4
:1024F0004FF00001E3FB072118BF42F00102401832
:1025000000214941E3FB0E01A4F580640F0302D2D0
:1025100052004041494154F101046CDD470872F119
:10252000004250F1000051EB0451A1F580115CBF55
:1025300041EA0C01B0BD4CEA05510020B0BD05EAEE
:102540001357AC4214BFAF4241E050EA410E1CBFEA
:1025500052EA430E02E061460020B0BD24423C44F2
:102560001BD15FEA070EF6D0090302BF0146002027
:10257000AEF1140EB1FA81F7AEEB070401FA07FED3
:102580000C37C7F1200100FA07F7C8404EEA000EE9
:1025900023EA455343F48013A2E733F00043B3FA30
:1025A00083F704BFB2FA82FE77440B3FE41BB7F116
:1025B000200E2FBF02FA0EF3BB40C7F1200E22FA05
:1025C0000EFE38BF43EA0E03BA40641C82E750EAAD
:1025D000410E14BF52EA430E6FF000014FF4001792
:1025E00017EB430F8ABF194617EB410FB5E74CEACB
:1025F00005510020B0BDD4F10104B4F120070FDA79
:10260000C4F12007520828BF42F0010210FA07F572
:1026100001FA07F7E1BF2A43E0403843E1400FE009
:10262000352C98DCC7F1200452EA400220FA07F268
:1026300018BF42F0010231FA07F0A1400A4300211D
:1026400072F1004250F1000051EB0C01B0BD0000EE
:1026500010B5144600F002F8226010BDC1F30A5311
:1026600043B14A0012F5001F28D2A3F2FE32A1EBBB
:102670000251704750EA410C20D001F0004C31EA81
:102680000C01B1FA81F204BFB0FA80F3D2180B3A10
:10269000B2F120032CBF00FA03F1914041EA0C0192
:1026A0003EBFC2F1200C20FA0CF319439040524275
:1026B00040F2FD33D21A01EB0351704700227047FC
:1026C0004FF4001C1CEB410F94BF1CEB430F09E0BF
:1026D00041EA030C50EA4C0C52EA0C0C03D299422A
:1026E00008BF9042704714BF8B428242704700007F
:1026F0004FF4001C1CEB410F94BF1CEB430F09E08F
:1027000041EA030C50EA4C0C52EA0C0C03D28B4207
:1027100008BF8242704714BF994290427047000040
:10272000124254D440F2FF7C1CEA11530FD063458F
:1027300031D09B1863453CBF01EB0251704701F05B
:10274000004141EA0C510020AFF30080704750EA8D
:10275000410320D001F0004C91EA0C011CD0B1FAE9
:1027600081F30B3B9A420DD9D21A994051EA0C01E0
:10277000C3F1200C20FA0CFC61449840531C40F239
:10278000FF7CD7E7914041EA0C01C2F1200C20FA0E
:102790000CF3194390407047B0FA80F31533202BA7
:1027A000E0D3202AEED3203A203B9A4209D9D21A0C
:1027B00000FA03F141EA0C010020531C40F2FF7CB7
:1027C000B8E700FA02F141EA0C01002070475242DA
:1027D00040F2FF7C1CEA11530DD06345DBD0B2EB15
:1027E000030C3CBFA1EB025170470CF1010221EA3E
:1027F000035141F4801150EA410CCCD001F0004C5F
:10280000352A27DC30B481EA0C01B2F1200309DA61
:10281000C2F12003044601FA03F5D0402843D14019
:102820009C400CE0C3F12002450020FA03F418BFDD
:1028300044F0010421FA03F091400C43002174F1AB
:10284000004550F1000051EB0C01244230BC7FF4F4
:102850007BAF70476146002076E70000C1F30A5362
:1028600040F2FE329B1A14DDD3F120034FEAE172ED
:1028700008DDC90241EA505141F00040D8408018BB
:102880005040704703F2E13010B1D24382F0004073
:102890007047002070470000C11768B14840401AD7
:1028A000B0FA80F29040D21CC907C2F5846241EAB6
:1028B000025202EBD02140057047000070B44FF087
:1028C000004591EA030F40F1BB816B40841A71EB24
:1028D000030603D2001BB141121973414FF4001CCF
:1028E0001CEB410F34BF7CEB430442E00C0DA4EB26
:1028F0001356352E4FDC45EAC323DB0A45EAC121D6
:10290000C912B6F120050DDD63FA05F6EB4086EA43
:102910000305124218BF45F00105C01851F100012E
:102920000CD213E062FA06F5F2405540F3415A40EA
:10293000B340F3405A408018594107D349085FEA31
:1029400030005FEA350528BF45F0010501F580112B
:10295000420875F1004250F1000041EB04514E0075
:1029600016F5001F70BC38BF70470020090D09051F
:1029700070471CEB410F10D252EA43060BD0BCEB60
:10298000410F05D80C0DAB43661E342EB6DD02E0B8
:10299000AB438018594170BC704770BC7047000051
:1029A000F0B540F2FF7581EA030C0CF0004C15EA1B
:1029B00011541DBF15EA1357AC42AF42E5E0BC41CC
:1029C000C1F31301C3F31303801A994143F4801335
:1029D00004D2641E4000494180185941C90241EAAD
:1029E0005051B1FBF3F603FB1611A2FB0675D7EBB2
:1029F000C020A94102D2761E80185941C90241EA7D
:102A00005051B1FBF3FE03FB1E11A2FB0E75D7EB79
:102A1000C020A94103D2AEF1010E801859418902AC
:102A200041EA9051760546EA8E2EB1FBF3F603FBA0
:102A30001611A2FB0675D7EB8020A94102D2761EA3
:102A400080185941C90241EA50514EEA060EB1FBC5
:102A5000F3F603FB1611A2FB0675D7EBC020A941C4
:102A600002D2761E80185941C90241EA5051B1FB89
:102A7000F3F703FB1711A2FB0735D3EBC020A941E5
:102A800067F100070CBF004247F0010766F3D52746
:102A90004FEA1E31B80814F5806412DDBD0775F1E8
:102AA000004250EB0E5051EB045111F5801F5CBFFA
:102AB00041EA0C01F0BD4CF07F6141F0E0410020A3
:102AC000F0BDBD076D0840EA0E5041F48011D4F10D
:102AD0000104B4F120060ADAC4F120060200E04045
:102AE00001FA06F3E1401843B24015430EE0342CDE
:102AF00013DCC6F1200445EA40056D0820FA06F211
:102B0000154321FA06F0A1400D43002175F1004262
:102B100050F1000051EB0C01F0BD00205FEA0C0108
:102B2000F0BDCFB992185B41B3FA83F704BFB2FA94
:102B300082F6BF190B3FB7F120062FBF02FA06F34A
:102B4000BB40C7F1200622FA06F638BF3343BA402D
:102B50001CB1E419641E33E77F4231F00041B1FA41
:102B600081F404BFB0FA80F6A4190B3CB4F120063E
:102B70002FBF00FA06F1A140C4F1200620FA06F6A4
:102B800038BF3143A0403C1B1AE7AC421ABF05EAEC
:102B90001357AF4212E050EA41061CBF52EA430607
:102BA000BFE750EA4107304661461CBF41EA055184
:102BB000F0BD52EA430C08BFC143F0BD00204FF402
:102BC000001616EB410F98BF16EB430F08BF16EB2C
:102BD000410F24BFC14305E016EB430F0CBF614614
:102BE0004CEA0551F0BD0000400D491840EA812033
:102BF0000CD2490DA1F58061491C40F0004005DB75
:102C0000D1F11F0154BFC840C01770470020704762
:102C1000014648B1B0FA80F18840C91CC1F5846111
:102C2000090501EBD0214005704700007047000006
:102C300070B44FF0004591EA030F7FF547AE6B404B
:102C4000841A71EB030604D26E40001BB1411219C5
:102C500073414FF4001C1CEB410F34BF7CEB430667
:102C600083E00C0DA4EB1356362E00F37C80012E6E
:102C700045EAC32341DC43EA525312BFD202920217
:102C80005B08240545EAC12141EA5051D2EBC0203E
:102C9000994125D407D1B0FA80F610FA06F162D036
:102CA0000020203608E0B1FA81F6B140C6F12002DA
:102CB00020FA02F21143B0404FEAF474B4EB4654E8
:102CC00034F001064FEA74040AD8D6F50016760DE2
:102CD00004F00044F04061FA06F25040F1404840F0
:102CE000C00A40EA415021F0004128BF5FEA500588
:102CF00050F1000044EBD12135E0DB0A45EAC12167
:102D0000C90AB6F120050EDD42EA0242120CC5F1F5
:102D1000200603FA06F6EB4042EA06056D429841AA
:102D200061F100010DE062FA06F5F240554063FAE8
:102D300006FC82EA0C02F3405A406D42904161EB7E
:102D4000030111F4801F05D1641E620502D06D00DD
:102D50004041494121F48011430875F1004350F18D
:102D6000000041EB045170BC70471CEB410F15D2C1
:102D700023F0004352EA43060BD04FEA4C0CBCEB65
:102D8000410F04D80C0D661E342EB7DDEBE7801A18
:102D9000994150EA410608BF0021E4E708BF1CEB57
:102DA000430F28BF6FF00001DDE7000038B50400D5
:102DB00001D1012032BD00F058F818B900F051F8E7
:102DC00000F0DBFB2DE090F83D10012901D001203F
:102DD0007047022180F83D100168CA6842F0010284
:102DE000CA600068DFF88C10884218BFB0F1804FCD
:102DF00007D0DFF8841088421CBFDFF880209042A3
:102E000009D1816801F00701062908D0016841F065
:102E10000101016003E0026842F00102026000204B
:102E2000704702206870211D206800F0DCF9012045
:102E3000A872A870E87028716871A871E87128728A
:102E400068726870002032BD38B5040001D10120DD
:102E500032BD00F00AF818B900F003F800F0A7FB43
:102E6000DFE7002129702046704704F13C056878AF
:102E700070470000002C01400004004000080040A2
:102E8000F8B504000E4601D10120F2BDFFF7EDFFB9
:102E900018B9FFF7E6FF00F04AFB022068702168CE
:102EA000DFF87C028A6802408A60211D206800F0F9
:102EB0009AF92268DFF86C1293689069176A0140EA
:102EC000B0680843B16940EA0120DFF85C120140B4
:102ED000F0680843F16940EA0121306941EA0010D5
:102EE000316A40EA013C7068716927F022070743A4
:102EF0003068034347EA011793602168C1F818C09E
:102F0000012120680762A972A970E970A971E971AD
:102F100069700020F2BD10B50446206801698A0777
:102F200015D5C1688A0712D56FF00201016101222F
:102F30002277806910F0030F204602D000F094FB46
:102F400003E000F092FB00F087F800202077206873
:102F500001694A0715D5C1684A0712D56FF0040107
:102F6000016102222277806910F4407F204602D05E
:102F700000F07AFB03E000F078FB00F06DF8002031
:102F80002077206801690A0715D5C1680A0712D59C
:102F90006FF00801016104222277C06910F0030F6D
:102FA000204602D000F060FB03E000F05EFB00F082
:102FB00053F80020207720680169CA0615D5C1683A
:102FC000CA0612D56FF01001016108222277C0698C
:102FD00010F4407F204602D000F046FB03E000F0F2
:102FE00044FB00F039F80020207720680169CA0707
:102FF00008D5C168CA0705D56FF0010101612046F7
:1030000000F008FB206801690A0608D5C1680A06B5
:1030100005D56FF080010161204600F027FB206894
:1030200001694A0608D5C1684A0605D56FF0400116
:103030000161204600F01BFB206801698A060AD561
:10304000C1688A0607D56FF0200101612046BDE8FE
:10305000104000F00DBB10BD204600F00ABB38B593
:1030600000F057F801D1022032BD012084F83C0065
:1030700032B1042A15D0082A25D00C2A34D044E0D5
:10308000206800F0DFF82168886940F00800886156
:10309000886920F0040088618A69286902438A618E
:1030A00033E0206800F0F3F82068816941F40061A2
:1030B0008161816921F48061816181692A6941EAC4
:1030C0000221816121E0206800F00AF92168C869C5
:1030D00040F00800C861C86920F00400C861CA69EE
:1030E00028690243CA6110E0206800F021F92068D5
:1030F000C16941F40061C161C16921F48061C161AC
:10310000C1692A6941EA0221C161002084F83C00BA
:1031100032BD04460D4694F83C000128704700007B
:10312000F8BFFFFFFCFCFFFF0303FFFF38B500F013
:103130004EF801D1022032BD0120207002226270BF
:10314000DFF82C022A689368034093600868020045
:1031500018BF10282DD0202818BF302829D040288B
:1031600023D0502816D0602818D0702803D0B0F58E
:10317000005F07D021E000F025F82868816841F061
:10318000770105E000F01EF82868816841F480416D
:10319000816012E000F012F850210BE0CA68496823
:1031A000286800F0FEF8602104E000F007F84021F4
:1031B00000E00146286800F006F90EE0CA68496898
:1031C0002868DFE0CB684A688968286803E105461B
:1031D00005F13C042078012870470120607000212F
:1031E0002170002032BD70B5624E0368624C634DA1
:1031F000B04218BFB0F1804F03D0A84218BFA04220
:1032000009D14A6823F070031343B0421CBFB0F1E8
:10321000804FA84201D0A04203D1CA6823F4407372
:1032200013434A6923F0800313430360B0428B6861
:10323000C3620A68826202D10969514A116001239E
:10324000436170BD70B5026A520852000262066A9C
:10325000446885690B688A6825F073051D4326F06C
:1032600002061643434B98420BD1CA684B6926F0BD
:10327000080624F4407416438A691C4326F00406A9
:1032800014434460856149684163066270BD70B54E
:10329000026A384E22F010020262B042056A4368A8
:1032A00084690A6824F4E64444EA02248A6825F022
:1032B000200545EA02150DD1CA684E6925F0800542
:1032C00045EA02158A6923F44063164325F0400558
:1032D00043EA86034360846149688163056270BD87
:1032E00070B5026A22F480720262056A4368C4699A
:1032F0000A688E6824F0730414431E4A25F400758E
:10330000904245EA06250DD1CA684E6925F400654C
:1033100045EA02258A6923F44053164325F4806563
:1033200043EA06134360C4614968C163056270BD26
:1033300070B5026A0F4E22F480520262B042046AF3
:103340004268C3690D6823F4E64343EA05238D68A8
:1033500024F4005444EA053404D14D6922F4804237
:1033600042EA85124260C36149680164046270BD2B
:103370008800FFFF002C01400008004000040040CE
:10338000302C014010B5036A046A640864000462CA
:1033900023F00A03846924F0F00444EA02148461EF
:1033A00023E010B5036A23F0100303628369046A03
:1033B00023F4704343EA023324F0A004836144EA17
:1033C0000114046210BD826822F07002114341F0C2
:1033D00007018160704710B5846824F47F4421435D
:1033E000114341EA0321816010BD1943016210BD00
:1033F000D8B58BB002A8242100F03CF994A44FF07A
:103400008041D4E90067884C21604FF6FF710120AC
:10341000CDE900670022E1600290049008906260AC
:10342000A2602261A261039205920692079209921C
:103430000A9202A92046FFF723FD08B100F097F990
:1034400000F036F808B100F092F90CB0D0BD0000E1
:10345000D0B586B002A8102100F00CF9DFF8CC013D
:103460007DA441F61F41D4E90067714C20606320C0
:10347000E06000228020CDE90067A0616160A26069
:1034800022612046FFF792FC08B100F070F94FF47A
:103490008050029002A92046FFF748FE08B100F0D4
:1034A00066F900F005F808B100F061F906B0D0BD8A
:1034B0000021009101912046694600F05FB90000AB
:1034C00030B500BF66A15B4C5B4DD1E9002389B0EC
:1034D00002A8CDE900231C2100F0CCF80420606094
:1034E000002140F2E730E060A1608020A06121610E
:1034F00025602046FFF7A8FC08B100F038F9FFF777
:10350000D7FF08B100F033F9602100220291039245
:103510000492069202A904222046FFF7A0FD08B1FA
:1035200000F025F9204600F053F809B030BD18B579
:1035300085B000F06AF82468B4F1804F1BD13F4891
:10354000416841F001014160416801F001010091D1
:103550000099026842F0040202600321006800F052
:1035600004000090002200983548019102920392D5
:1035700001A900F035F906B010BD00682B4988425A
:1035800000D0704780B52F48026842F00202026006
:103590000022006800F002000090012100981D2028
:1035A00000F012FABDE802401D2000F02ABA81B0F6
:1035B00000682149884209D12248026842F0040289
:1035C0000260006800F004000090009801B07047AD
:1035D00030B585B000F019F82468174DAC4212D10F
:1035E0001648016841F0080101608021006800F080
:1035F0000800009002220098134801910292049260
:1036000001A900F0EDF805B030BD044601A8102175
:1036100000F030B800680549884202D10B48012209
:103620000260704700000000C8060020000400404F
:103630001007002058070020000800401810024022
:10364000000801401C100240000C014058080020F6
:10365000000000000000000000000000000000006A
:10366000000000000000000070477047704770477E
:1036700070477047002200F0EFB900001CB500F061
:1036800005FA00F049F800F013FA00F033FA00F000
:1036900051FAFFF7ADFEFFF7DBFEFFF711FF00F079
:1036A000ADFA1649164800F037FB1648FFF78BFBBA
:1036B0001548FFF788FB154931200860002000F00D
:1036C00051FC13496420086229A000F073FD00201A
:1036D00000F161010DF80010401C0828F8DB694674
:1036E000012000F080FE0B4C00F02AFB206800282F
:1036F000FAD00021216000F0AEFBF5E7E0070020E2
:10370000A0070020C8060020100700202C0400405D
:10371000080400205808002000B58FB005A8282113
:10372000FFF7A8FF68461421FFF7A4FF4FF480318C
:103730000022069107920D91012005900990022226
:103740004FF4E0110C920E9105A800F0A7FE0221A3
:1037500001910F204FF480610090002203910292AA
:1037600004920221684601F029F80FB000BD7047AD
:1037700068656C6C702F722F6E00000070B500F1E0
:103780003C031A78012A01D1022070BD01221A706F
:1037900002245C7005686E68AC680A6826F07006E2
:1037A00016436E6002680B48824218BFB2F1804F28
:1037B00005D0094882421CBF084DAA4204D148687E
:1037C00024F0800404439460012159700020187093
:1037D00070BD0000002C01400004004000080040C3
:1037E0002DE9F8470027BE465D4A5E4B4FF00F08B3
:1037F00082460BE0D6683040D06006E094604C68AA
:10380000A402F7D5D0680643D6607F1C0E6836FA4E
:1038100007F000F0A380012000FA07F52E40AE4229
:10382000F3D1486858B301281AD002281FD00328C2
:1038300033D0112817D012281DD04B4CA0421CBFEA
:103840004A4CA0421BD04A4CA0421CBF494CA0424B
:1038500015D0494CA0421CBF484CA0420FD01EE0DE
:10386000D1F80CE01BE0C86800F1040E17E0C8684E
:1038700000F1080E13E0C86800F10C0E0FE0886834
:1038800010B94FF0040E0AE001284FF0080E14BFE3
:10389000CAF81450CAF8105001E04FF0000EB6F507
:1038A000807F03D250464FEA870C05E0A7F1080459
:1038B0000AF104004FEA840C046808FA0CF5AC43E2
:1038C0000EFA0CF52C4304604868C0009DD51868BA
:1038D000DFF8ACC040F0010018601C6804F001047F
:1038E0000094BC000098B8085CF8205004F00C0468
:1038F00008FA04F925EA0909224DAA4508BF00255E
:103900000ED0214DAA4508BF012509D01F4DAA455B
:1039100008BF022504D01E4DAA450CBF032504256F
:1039200005FA04F444EA09044CF82040F0434C68DA
:10393000E40314684CBF3443044014604C68A4038F
:1039400054684CBF3443044054604C689568E402AA
:103950004CBF46EA050400EA05044FE7BDE8F187DD
:103960000004014018100240000011100000121065
:103970000000211000002210000031100000321061
:103980000800014000080140000C01400010014007
:10399000001401400901020002D4294881547047F3
:1039A000284B02F00F021A4402F8041C7047264B01
:1039B00019684FF6FF020002114000F4E06008436E
:1039C000224908431860704738B51F4B1C68C4F380
:1039D0000223C3F10704052C28BF04241D1D072D55
:1039E00034BF0023DB1E012505FA04F4641E2140C8
:1039F000994005FA03F35B1E1A401143BDE83440B9
:103A0000C8E7010007D4012200F01F01104B8A40D3
:103A1000400943F82020704710B5401EB0F1807F68
:103A200001D3012010BD0B4C60600F214FF0FF301F
:103A3000FFF7B0FF0021A16007202060002010BD2B
:103A400000E400E018ED00E00CED00E00000FA05F5
:103A500000E100E010E000E000B500BF1300964672
:103A60009446103928BFA0E80C50FAD85FEA417C90
:103A700028BF0CC048BF40F8042BC90728BF20F856
:103A8000022B48BF00F8012B00BD000080B507489D
:103A9000016841F0100101600320FFF788FF00205A
:103AA00000F062FF00F080FF002002BD0020024015
:103AB0000F4881B0016841F020010160026802F006
:103AC000200200920099026842F00402026003683A
:103AD00003F0040300930099026842F008020260B8
:103AE000006800F008000090009801B0704700BF27
:103AF0001810024080B50E48016841F001010160D4
:103B00000022006800F001000090002100980E20C3
:103B1000FFF75AFF0E20FFF774FF002200210F204D
:103B2000FFF752FFBDE802400F20FFF76ABF00BF5A
:103B30001410024080B52D482D49016003224FF436
:103B400080114260416100234FF400220121836013
:103B5000C36002610376417643830377417700F0C7
:103B600045FF18B1BDE80140FFF701BE01BD30B50A
:103B700085B0044601A81021FFF77CFD24681C4D88
:103B8000AC4230D11B481C4C416841F0007141608F
:103B9000416801F0007100910099026842F004024E
:103BA00002604FF40061006800F004000090002201
:103BB000009801910292039201A92046FFF710FE9E
:103BC0004FF480500221019002910322049201A936
:103BD0002046FFF705FE002201211420FFF7F4FE26
:103BE0001420FFF70EFF05B030BD0000E0070020F5
:103BF00000640040181002400008014080B54048B1
:103C0000404901604FF4E13200230C21426083609F
:103C1000C360036141618361C36101F0EDF918B1D3
:103C2000BDE80140FFF7A3BD01BD78B585B00446EE
:103C300001A81021FFF71EFD2568324EB5425CD168
:103C40003148324D0168324E41F4804101600268D2
:103C500002F4804200920099026842F0040202607D
:103C60004FF40071006800F00400009002220098F8
:103C70000191029203210491284601A9FFF7B0FDAA
:103C80004FF480600021019002910391284601A920
:103C9000FFF7A6FD1F4D05F11400306000218020C4
:103CA000F0607160B16031617161B161F1613046A4
:103CB00001F03AFC08B1FFF75AFD102000216663BD
:103CC000B064F164802030657165B165F16531667D
:103CD0007462756406F1440001F026FC08B1FFF738
:103CE00046FD06F144002063B4660022032125202E
:103CF000FFF76AFE2520FFF784FE06B070BD0000C6
:103D0000A0070020003801401810024000080140C0
:103D1000400500204400024010B50C4608B100F0F8
:103D200071F901F015FE00BF0FA000F043FA34B1A5
:103D3000204600F0CFFABDE8104001F0FDBE10BDF6
:103D400010B5074C206818B100F086F900212160F9
:103D5000044C206818B100F004FB0020206010BD66
:103D6000540800205008002073696D706C656C6900
:103D70006220696E697420646F6E650D0A00000030
:103D80008C490968A1F20121052900D37047F8B5D3
:103D90002823894D894A4B432E1DD41856F82120DB
:103DA000012A0BD10378407840EA0320A0812082C9
:103DB0002A1D002042F821006061F1BDA189E18146
:103DC0000278417841EA0221A1818278C17841EAF2
:103DD000022121800679407940EA062001F000FFA7
:103DE000774901F00FFF4FF0625101F00BFF606067
:103DF00041F20102A189E089091A914202DB60695E
:103E0000401E06E0A189091A11F5805F02DA606997
:103E1000401C60616069A18901EB4031208A091A68
:103E2000A1610A222868401C286090FBF2F20A2156
:103E300001FB120070B9E06901F0D2FE0746A069EB
:103E400001F0CEFE394601B0BDE8F040002300226B
:103E500000F0CCB9F1BDDFB50024204600F01BF81E
:103E60004DF82400641C042CF7DB039801F036FFA6
:103E700007B2029801F032FF06B2019801F02EFF5E
:103E800004B2009801F02AFF3B463246214600B2B8
:103E900000F04DF8DFBD2DE9F041044628254748E4
:103EA000484F65430544A86901F09AFE0646E86953
:103EB00001F096FE8046386801F092FE414601F01E
:103EC00023FF01464048324600EB441001F08EFFCC
:103ED000064695F8240040B930463C4901F0D6FF2B
:103EE00098BF3B4E11D93B4909E001280CD130461F
:103EF000394901F0CBFF98BF384E06D9384901F057
:103F0000D7FF02D20E4600E00026B5F9000001F00E
:103F100067FE0746286A01F063FE014631483A46CB
:103F200000EB441001F062FF3046BDE8F08138B587
:103F30008DF8031005128DF800508DF801000D1258
:103F400011128DF804108DF8052019128DF8061045
:103F50008DF807308DF8025069464FF4007000F07C
:103F600042FA23BD38B500F017F800F010F81E48EB
:103F70001E4900F017F81E4A6061E16100231D4CE4
:103F80006C60FFE768612A60AB60E96131BD0E4992
:103F90000D44284601F074BF4501124844192046DB
:103FA00001F06EBF144A2060A1606260134814499A
:103FB000704700005400002080000020080400200A
:103FC0000000A040600800204806002001007A455B
:103FD00000007A4500401CC601300E4600300E46F7
:103FE00000300EC6C80500203333B33F6666663F17
:103FF000B81E053E9EEFA73D9A99193F00409C458B
:104000000AD7A33B10B501468C4C20464022FEF750
:1040100029F9202204F14001204601F064F800F063
:1040200007F82068C16841F01001C16010BD0000B0
:1040300010B5834C206830B9002282490FF221204C
:1040400001F060FF2060BDE810400FF2F90200BFF0
:104050000FF238218BA083E01CB57B4C04F1680281
:104060006946204600F03EF8009804F1680100F02F
:104070004FF863212046FFF7FDFA0020606613BD6C
:1040800038B501686D4C2068814229D10022009228
:104090000B680093496800910098204601F06CF885
:1040A00004F13F0104F1A30211F8010F08B9914294
:1040B000FAD3654D6222284602F016F8287810B12E
:1040C000624801210160632104F14000FFF7D2FA48
:1040D00004F140012046BDE83840632201F003B8F6
:1040E00031BD0000F8B50C4664A61546314602F015
:1040F0000BF8002748B10D2F07DA45F827003146A5
:10410000002002F001F87F1CF4E727600020F2BDD8
:1041100038B50D464A4A29680446106801F05AFF2E
:10412000020008D012682946204690475DA000F0A2
:1041300041F8002032BD00BF5DA000F03BF8012037
:1041400032BD000080B500BF5DA000F033F83C48F0
:104150000FF21D110068BDE80840002201F064BFA5
:104160002DE9F8430446894616460820FCF720FE50
:1041700007462046FEF72EF8401CFCF719FE804645
:104180004846FEF727F8401CFCF712FE054621467C
:10419000404601F0DFFF4946284601F0DBFF3A4682
:1041A00041463E607D6026480068BDE8F84301F066
:1041B000CBBE00000EB430B5204C024604F1A4057D
:1041C00003AB6521284601F0D1FF04F13001202224
:1041D0004A7200F006F800F03DF830BC5DF810FBC4
:1041E0007047294682B2204600F041BF3FB51849CA
:1041F000124C0D20087581B00A224A7501A80A1DCB
:104200000368136002A801F108020368136003A8A1
:1042100001F10C020368136004A801F110020368A5
:10422000136004F1300520236B721622204600F043
:104230001EFF00F00FF805B030BD0000FC020020AA
:104240004C080020E75E0008A80400205408002065
:1042500068000020206B90F821100129FAD17047E6
:1042600080B501F0A1FF00B10120C0B202BD000085
:1042700009684A684FEA000113A09BE72C200D0A49
:104280000000000068656C7000000000636F6D6DD9
:10429000756E69636174696F6E20636D64207573F8
:1042A000616765005B446F6E655D0D0A000000008C
:1042B000636D64206E6F742066696E640D0A000081
:1042C00048656C703A0D0A0025733A2025730D0A73
:1042D0000000000038B501464B4C20462822FDF76F
:1042E000C1FF4A4D0023022205F16001204600F083
:1042F00092F8204600F056FC08B1FFF738FA022188
:10430000204600F06FFD08B1FFF731FA0421204686
:1043100000F068FD08B1FFF72AFA0020E8600021EC
:1043200008202861A9602975A86D38B900220FF20C
:1043300049110FF2491001F0E5FDA865BDE83140D3
:1043400001F0FABB38B504460D460420FCF730FDF9
:104350002E4B04600146986D2A46BDE8384001F0B6
:10436000F3BD10B5294CA06D04F1540101F032FEEB
:1043700001001CBF04F148008847206D28B104F1FA
:104380004800BDE8104000F087B810BD10B51F4CC4
:1043900004F1380304F11802002100F0A7FC206AA0
:1043A0001B4B00280CBFA069E06960650122D4E9BD
:1043B0000E01C4E912011A6010BD000010B5134CC3
:1043C00001202064AD212060616400BF2FA0FFF7B1
:1043D000F1FE04F15C0304F140022146BDE8104007
:1043E000094800F018BC80B50A460849086000205A
:1043F000FFE7886001F15C03034800F00CFC00B1AA
:10440000012002BD0000000008080020000000207C
:1044100050080020704770B58AB00024012505932C
:10442000069407950AB10C686401009440F2FF738A
:104430000024019406E00E6851F82550F6437540BB
:104440002B40641CA5B29542F5D3002A1ABF1B0469
:10445000DB0A002302930222002303920493012229
:104460000E2308920993694600F037FB08B1FFF765
:104470007EF90AB070BD00000068704700680968E6
:10448000884201D1002070470120704773656E6437
:1044900020646174610D0A00704700002DE9F84343
:1044A000040016D02078DFF87C64C10713D570684B
:1044B00000F00C00042807D0706800F00C000828F9
:1044C00040D17068C1033DD53068810303D5606871
:1044D000002800F0F4802078DFF85874810719D59F
:1044E000706810F00C0F07D0706800F00C000828FE
:1044F00060D17068C1035DD43068810703D520693D
:10450000012840F0DC803168606921F0F80141EA5F
:10451000C00131602178080770D5A069DFF8181450
:10452000002865D001220A6001F048FE0546706A45
:10453000810700F1C68001F041FE401B0228F6D938
:10454000032035E16068B0F5803F04D1306840F465
:104550008030306014E008B930680AE0B0F5A02F70
:10456000306806D140F480203060316841F48031F9
:1045700005E020F480303060316821F48021316022
:10458000606858B101F01AFE054630688103A2D474
:1045900001F014FE401B6528F7D3D1E701F00EFEB1
:1045A00005463068810396D501F008FE401B65285A
:1045B000F7D3C5E7206970B10121396001F0FEFD34
:1045C00005463068810700F1B68001F0F7FD401B19
:1045D0000228F6D9B4E7386001F0F0FD05463168ED
:1045E000880797D501F0EAFD401B0228F7D9A7E715
:1045F000086001F0E3FD0546706A810770D501F09F
:10460000DDFD401B0228F7D99AE708B9306A09E0B6
:104610000528306A06D140F004003062306A40F06C
:10462000010005E0400840003062306A20F00400DC
:10463000306241F28938E06868B101F0BFFD81461F
:10464000306A810700F1848001F0B8FDA0EB090019
:104650004045F5D374E701F0B1FD8146306A81072A
:1046600076D501F0ABFDA0EB09004045F6D367E736
:1046700001F0A4FD401B02287BD961E701F09EFDFB
:10468000001B022840F28F805AE700F093F804469E
:104690003068810140F18B8001F090FD001B022801
:1046A000F6D94DE701280AD07068226A00F48031FB
:1046B000914202BF00F47010616A884277D00120F5
:1046C00076E0DFF864020168C9084FF47A72B1FB42
:1046D000F2F2009200BF0098411E00280091F9D12B
:1046E0002078410739D5F0690025C10009D4F06967
:1046F00040F08050F0610125F06900F0805000909A
:104700000098DFF83882D8F80000C1051BD4D8F82B
:10471000000040F48070C8F8000001F04FFD8146B1
:10472000D8F80000C1050ED401F048FDA0EB090047
:104730006528F5D304E73068616920F0F80040EAA5
:10474000C1003060E6E6E06801287FF45EAF65E70F
:104750001DB1F06920F08050F061E06938B37168F4
:1047600001F00C0108299DD002288ED100F022F81A
:104770000546306881013FF57BAF206AB0F5803F88
:1047800005D17168A06821F400310143716072683D
:10479000206A616A22F4741202430A4372600120A3
:1047A00000F009F80446306881017FF567AF00200A
:1047B000BDE8F2830020386601F000BD2DE9F0412C
:1047C0000400884672D05E4E00F077F802D200F006
:1047D0006FF86BD12068534D810712D5400703D580
:1047E000696841F4E06169602078010703D5686871
:1047F00040F4605068606968A06821F0F0010143EE
:1048000069602178C80749D56068012802D1296804
:104810008A0303E00228296802D18A0102D445E014
:104820008A0743D56968890840EA8100686001F019
:10483000C5FC07466868616800F00C00B0EB810FAA
:104840002CD001F0BBFCC01B41F289318842F1D36E
:10485000032021E02078410705D56A68E06822F44A
:10486000E06202436A602178080706D5696820691A
:1048700021F4605141EAC001696000F023F86A68E0
:104880003049294BC2F30312895CC840186028489C
:10489000006800F069F80020BDE8F081306800F0A1
:1048A00007008045D6D200F003F8D3D00120F3E70B
:1048B0003168C90848EAC1013160306800F007007A
:1048C00040457047204919480A6802F00C03082B3C
:1048D00000D0704710B500BF1EA4C2F38343D203BB
:1048E000E35C08D5096858431EA3C1F340415A5CF4
:1048F000B0FBF2F010BD18461449484310BD0A48F9
:10490000114A006813681249C3F3022206E0064800
:104910000D4A006813680E49C3F3C222895CC8407F
:104920007047000000100240A000002000127A0032
:104930009C0000200000424280044242007000407F
:1049400000200240F86F00080410024000093D00FA
:104950002470000802030405060708090A0B0C0D61
:104960000E0F10100102000038B50D4D0D4B2A78C6
:1049700004464FF47A711868B1FBF2F2B0FBF2F022
:10498000FFF74AF850B9102C08D2002221464FF008
:10499000FF30FFF719F8AC60002032BD012032BDB6
:1049A00094000020A00000200E4881B0016841F072
:1049B00001010160026802F0010200920099426860
:1049C00042F080524260406800F0805000900098B1
:1049D0000548016821F0E06141F00071016001B01B
:1049E000704700BF181002400400014038B50400B1
:1049F0001ED094F8200010B92046FFF7B8F82068C0
:104A0000016821F00201016001F0D8FB0546206831
:104A100041688A074ED501F0D1FB401B0B28F6D325
:104A200004E001F0CBFB401B0B2846D300F0E0F87C
:104A3000012032BD016821F080010160607E00F03C
:104A400048F80CBF41F0400121F040010160A07E18
:104A500000F03FF80CBF41F0200121F0200101607F
:104A6000E07E00F036F80CBF21F0100141F010019B
:104A70000160207F00F02DF80CBF41F0080121F00B
:104A800008010160607F00F024F80CBF41F00401D0
:104A900021F004010160A268E068216902436069B5
:104AA0000A43616802432068491E0A43C26100212B
:104AB0006162A5E000F0A9F8054620684168CA07D0
:104AC000AFD5217E0129B5D1026842F08002026093
:104AD000B4E70128206801687047F0B5066890F8CF
:104AE0002020012A18BF022A51D106F500720124A4
:104AF000106840F00100106006F511750B7DD0695B
:104B000003F01F0304FA03F3DC432040D06106F5F1
:104B10001076C86970B9D0682040D0604868CF6806
:104B200000F039F80F688868BFB247EA0047486963
:104B300045F83070C86901280ED1D0681843D0609C
:104B400048680F6800F027F8CE688868B6B246EA71
:104B50000046486945F830608869002850680CBFF5
:104B600020401843506008690028506907BF04407E
:104B7000546118435061086A012802D1D069034387
:104B8000D36100201168490849001160F0BD416AF5
:104B900041F48021A1E080B240EA07404F6946F825
:104BA0003700704738B5044694F82000012816D124
:104BB000022184F820102068026852085200026026
:104BC00001F0FCFA054620684168C8070DD501F0E0
:104BD000F5FA401B0B28F6D300F00AF803E0606AF0
:104BE00040F400206062012032BD0020606232BDCE
:104BF000606A40F400306062052184F8201070473C
:104C0000012084F82000002032BD016841F001013C
:104C1000016001F0D3BAF0B590F820400568AD68A6
:104C2000012C18BF022C55D115F0E05F4ED0C5F312
:104C30000164032C03D3416A41F400014DE00125D6
:104C4000A5401D6024010368CE6803F5C0758B681C
:104C50001BB90B6846EA435603E04F6843EAC703B3
:104C60001E432E5105680B6905F5C2763351097D47
:104C7000012906D1036803F5C2710D5945F4807509
:104C80000D519379D17955791B0443EA0163117968
:104C900043EA0523056825440B43C5F88C31937816
:104CA000D17855781B0443EA01631178026843EA1E
:104CB000052322440B43C2F88831006800F5C07018
:104CC000015941F0010101510020F0BD416A41F458
:104CD000001102E0416A41F4802141620120F0BDEF
:104CE000416A41F48021416201207047F0B590F89B
:104CF0002040012C18BF022C66D10029046801D184
:104D0000E56800E0256915F0030F03D1416A41F41D
:104D100000115CE00D0104F5D876745914F0040418
:104D20009460066806F5D87603D17459640D146052
:104D300002E07659F6085660046804F5D87677598B
:104D400007F00207D76000F043F806F00F0616617F
:104D500000F03EF8C6F30724946100F039F8360CF1
:104D6000566102682A44D2F8B8411C7006682E4485
:104D7000D6F8B821120A5A7004682C44D4F8B82125
:104D8000120C9A7004682C44D4F8B821120EDA7010
:104D900000F023F81A7100F020F8120A5A7100F09E
:104DA0001CF8120C9A7100F018F8120EDA710068F3
:104DB00021B9C16841F02001C16003E0016941F0FF
:104DC000200101610020F0BD416A41F4802184E7A7
:104DD00004682C44D4F8B461704704682C44D4F8B7
:104DE000BC21704790F82020012A18BF022A03D165
:104DF00000684269114300E072E74161002070479A
:104E00002DE9F84F05464FF0000828684669D0F8AC
:104E100004B08468D0F80C90D0F810A08769F1072E
:104E200045D5E20713D501218160A00703D52846A7
:104E300001F0CAF90BE0600748BF4FF4006806D4E0
:104E400020074EBF4FF48058284601F0BEF9E00518
:104E500015D52A684FF48071A005916003D52846C6
:104E600001F0B4F90BE0600548BF48F4005806D4DF
:104E700020054EBF48F48048284601F0A8F9E00319
:104E800015D52A684FF48031A003916003D52846D8
:104E900001F09EF90BE0600348BF48F4004806D4D7
:104EA00020034EBF48F48038284601F092F93007BD
:104EB00048BF5FEAC96104D52968102048F400782A
:104EC000C860700748BF5FEA097105D52A680820E5
:104ED000D0602846FFF79EFAB00707D52968C86852
:104EE00010F0030F1CBF2846FFF750FA700648BFAA
:104EF0005FEACA6104D52968102048F48068086117
:104F0000B00648BF5FEA0A7105D52A68082010611B
:104F1000284601F05FF9F00607D52968086910F006
:104F2000030F1CBF284601F056F9B00348BF5FEAE3
:104F3000CB6105D52A6810205060284601F04CF955
:104F4000F00348BF5FEA0B7105D52A68082050605E
:104F5000284601F042F9300440D55FEA4B713AD55A
:104F6000F00503D5F90748BF48F00108B00503D59F
:104F7000B90748BF48F00208700503D5790748BF54
:104F800048F00408300526D517F0700F23D007F03D
:104F90007007102F0CD0202F0DD0302F0ED0402FA7
:104FA0000FD0502F10D0602F08BF48F480780DE04C
:104FB00048F008080AE048F0100807E048F0200828
:104FC00004E048F0400801E048F080082868816962
:104FD00021F070018161042029684860B8F1000F58
:104FE00008D0686A48EA000068622846BDE8F24FC7
:104FF00001F0F4B8BDE8F18F38B5040001D101200B
:1050000032BD00F021F808B900F022F800F012F8E3
:1050100000F023F8FFE7416100F001F832BD20689D
:10502000C16841F40051C1600020686020216970AE
:10503000A9707047242068702068C16821F400516D
:10504000C160204600F030BA04F138056878704736
:10505000002129702046FEF7E8BD2068016921F48F
:10506000904101612068416921F02A01704770B5C3
:10507000044604F1380513466878202831D109B177
:10508000180001D1012070BD2878012829D0012005
:1050900028702162A384E3840020686021226A7062
:1050A0000FF28920226B9062226B0FF2AD20D0624A
:1050B000226B0FF2ED2010630020266B70632068D6
:1050C000021D206B00F05DFA21686FF0400008605F
:1050D00000222A702068416941F08001416100206E
:1050E00070BD022070BD7CB5044604F1380513463E
:1050F000A87820283ED109B1180001D1012076BD41
:105100002878012836D001202870A162A3850022CA
:105110006A602220A8700026606B0FF2452282622E
:10512000606B0FF27522C262606B0FF27522026330
:105130000A46606B46632668606B311D00F021FAF9
:105140000020009021680A68009200224B680093BA
:1051500000982A70CB6843F48073CB602068416963
:1051600041F0010141612068416941F04001416124
:10517000002076BD022076BD38B5044604F139051D
:10518000206841692A78212A0CD109060AD542698A
:1051900022F080024261206B08B100F02CFA204618
:1051A00000F023F9206841696A78222A0CD1490667
:1051B0000AD5426922F040024261606B08B100F0FA
:1051C0001AFA204600F01AF9002032BD416921F098
:1051D00040014161606B704738B504462568296815
:1051E000EA686B6911F00F0007D188065FD5930656
:1051F0005DD52046BDE8324014E1D80702D412F450
:10520000907F54D0C80705D5D50503D5E06B40F095
:105210000100E063480705D5DD0703D5E06B40F0EA
:105220000200E063880705D5DD0703D5E06B40F099
:105230000400E063080707D5950601D4D80703D515
:10524000E36B43F00803E363E06B00286CD088064F
:1052500004D5910644BF204600F0E4F82068406978
:10526000E16B0A0701D440061BD5204600F0C6F8C2
:10527000206841694A060FD5FFF7A8FF60B10FF219
:1052800099114163606B00F0DBF900284CD0606B32
:10529000416BBDE8344008472046BDE8324000F08D
:1052A0009EBF204600F09BFF0020E06331BD080652
:1052B0002AD5130628D594F83900212834D1A068BE
:1052C000B0F5805F04BF2069002808D1206A0188FA
:1052D000C1F308016960206A811C216204E0206A30
:1052E000411C216200786860E08C401EE08480B23E
:1052F000D0B92068C16821F08001C1602068C16810
:1053000041F04001C16031BD48060DD551060BD5B5
:10531000E86820F04000E860202184F83910204639
:10532000BDE83240FEF75CBF31BD0000416A006855
:105330000268930644BF0846FEF752BF0020C884A7
:105340000868426922F0800242610868C16841F041
:105350004001C16070470000406A00F041BF00009A
:10536000416A00680268930613D40020C885086863
:10537000C26822F48072C260086842695208520012
:1053800042610868426922F040024261202081F8AF
:105390003A00084600F025BF406A00F023BF000035
:1053A00038B5446A2068406904F139052978212913
:1053B00006D1010604D50022E284204600F015F84B
:1053C000216848696978222906D1400604D5002160
:1053D000E185204600F012F8E06B40F01000E06339
:1053E0002046BDE8324000F0FABE0168CA6822F0EB
:1053F000C002CA60202180F8391070470168CA686D
:1054000022F49072CA6001684A69520852004A61E7
:10541000202180F83A107047406A0021C185C1847C
:1054200000F0DDBE80B590F83A1022293AD18168AB
:10543000826AB1F5805F0AD1016969B90368596868
:10544000C1F308011180826A911C81620FE000297A
:1054500004BF0169002902D10368596803E00168AB
:10546000496801F07F011170816A4A1C8262C18D16
:10547000491EC18589B299B90168CA6822F0200223
:10548000CA600168CA6822F48072CA6001684A6909
:10549000520852004A61202180F83A1000F0A1FE23
:1054A000002002BD022002BD10B504462268116929
:1054B000E06821F4405101431161D3681849A068A4
:1054C0000B402169034360690B430343D360516977
:1054D000A06921F440710143516112498A4202D10D
:1054E000FFF715FA01E0FFF70AFA6268192148434D
:1054F0009200B0FBF2F16423B1FBF3F203FB121153
:1055000009013231B1FBF3F000F0F00101EB0211BF
:10551000226800F00F004018906010BD00000000ED
:10552000F3E9FFFF0038014030B508B9012030BD74
:105530000468DFF8F0120919142200F13803B1FBF6
:10554000F2F292009A600222DFF8DC12596080F8D1
:1055500021202568416882686FF30D150D43C168ED
:10556000154302690D434169154382690D43C169C1
:1055700015430D43256000241C6000F0ABF80020AB
:1055800030BDF8B50446002594F82000012801D16B
:105590000220F2BD94F821600120012E84F8200041
:1055A00024D1022004F12C0684F82100F560206843
:1055B00007687F087F000760204600F045F92168F2
:1055C000306820B10A6842F00E020A6008E00868FC
:1055D00020F0040008602068016841F00A010160C1
:1055E0002068016841F00101016002E084F8205068
:1055F00002252846F2BD10B590F82110022900F1CD
:10560000380206D004231360002180F82010012006
:1056100010BD01680B6823F00E030B6001230168C5
:105620000C68640864000C60916852688B40536099
:105630000121002280F8211080F82020002010BDD8
:1056400038B590F821200024022A00F1340103D05B
:105650000420486001243BE00268136823F00E0335
:1056600013600268DFF8C43115686D086D001560BD
:1056700002689A4208BF012222D0DFF8B4319A4270
:1056800008BF10221CD0DFF8AC319A4208BF4FF49B
:10569000807215D0DFF8A0319A4208BF4FF48052D3
:1056A0000ED0DFF898319A4208BF4FF4803207D00D
:1056B000DFF88C319A420CBF4FF480124FF08072A9
:1056C000DFF880311A6000F005F8096801B18847F9
:1056D000204632BD012280F8212080F8204070470A
:1056E0002DE9F84F00F1280204275169544BD1F8F5
:1056F00000E0056853492E68D2F818A04F4CDFF837
:105700003881DFF83091DFF828B1DFF820C107FADF
:105710000AF71EEA070F2DD077072BD52E68B6069D
:1057200003D42E6826F004062E600568654508BF80
:10573000042318D05D4508BF402314D04D4508BF51
:105740004FF480630FD0454508BF4FF480430AD023
:10575000A54208BF4FF4802305D09D420CBF4FF4F3
:1057600080034FF080630B605168002958D0BDE87A
:10577000F44F0847022707FA0AF71EEA070F32D04C
:10578000B70730D52E68B60606D42E6826F00A066E
:105790002E60012580F821500568654508BF022369
:1057A00018D05D4508BF202314D04D4508BF4FF4E5
:1057B00000730FD0454508BF4FF400530AD0A542EF
:1057C00008BF4FF4003305D09D420CBF4FF40013C7
:1057D0004FF000730B60002180F820101168F9B1C0
:1057E000BDE8F44F0847082101FA0AF11EEA010F4B
:1057F00016D0310714D52B6823F00E032B6001243B
:10580000916953698C405C600121116180F821101D
:10581000002180F82010916811B1BDE8F44F0847CD
:10582000BDE8F18FF8FFFDBF000002400800024014
:105830001C00024030000240440002405800024078
:105840006C0002400400024070B5046CC66B012578
:10585000A5407560046863604068102802D1A260AA
:10586000E16070BDA160E26070BD000060A0FEF765
:10587000A1BC000080B500BF61A0FEF79BFCBDE8A5
:105880000140FEF79BBD000080B500BF60A0FEF7A1
:1058900091FC49480121016001BD000046490020FA
:1058A000086000BF5EA0FEF785BC4449086890F020
:1058B0000100086014BF0FF27C100FF28810FEF791
:1058C00079BC000080B5486800F02EFD3C490862B4
:1058D0004FEA0001BDE804405DA0FEF76BBC38B59F
:1058E0000C4684B06068374D00F022FF00F024FFC2
:1058F0002860A06800F01CFF00F01EFFA860E068B0
:10590000314C00F015FF00F017FF6860606800F090
:1059100047FFCDE90201A06800F042FFCDE9000198
:10592000206800F03DFF02460B462848FEF742FC87
:1059300005B030BD80B5486800F0F6FC2049C8616C
:105940004FEA0001BDE8044046A0FEF733BC00006A
:1059500080B51F4A0FF234114AA0FEF701FC1D4A20
:105960000FF248114EA0FEF7FBFB1B4A0FF250113D
:1059700051A0FEF7F5FB00BF56A1184A0846FEF7F6
:10598000EFFB174A0FF2601154A0FEF7E9FB154A2E
:105990000FF2681157A0FEF7E3FB134A0FF27411E0
:1059A0005AA0FEF7DDFBBDE80840104A0FF27C115B
:1059B0005CA0FEF7D5BB0000480800205C08002072
:1059C0000804002048060020C8050020D86E000802
:1059D0006D58000875580008AB5800088958000831
:1059E0009D580008C5580008DF58000835590008C0
:1059F00068656C6C6F20776F726C640D0A00000034
:105A000063616E2073656E6420746573740D0A00A3
:105A100073686F7720726F636B65720D0A00000008
:105A2000736F74702073686F7720726F636B657229
:105A30000D0A0000576176652053746172740D0A77
:105A400000000000576176652053746F700D0A00E6
:105A5000676F616C2069732073657420746F2025F3
:105A6000640D0A007461726765745F706F736974A6
:105A7000696F6E2069732073657420746F202564CC
:105A80000D0A000068656C6C6F0000006A75737425
:105A9000206F75747075742068656C6C6F00000001
:105AA00063616E5F746573740000000074657374E5
:105AB0002063616E000000007761766500000000E1
:105AC00077617665206F7574707574207465737472
:105AD00000000000726F636B6572000063616E5FAF
